{
  "_format": "hh-sol-artifact-1",
  "contractName": "TrashOfMind",
  "sourceName": "contracts/TrashOfMind.sol",
  "abi": [
    {
      "inputs": [],
      "stateMutability": "nonpayable",
      "type": "constructor"
    },
    {
      "anonymous": false,
      "inputs": [],
      "name": "deleteMind",
      "type": "event"
    },
    {
      "anonymous": false,
      "inputs": [
        {
          "indexed": false,
          "internalType": "uint256",
          "name": "_currentIndex",
          "type": "uint256"
        }
      ],
      "name": "throwMind",
      "type": "event"
    },
    {
      "inputs": [
        {
          "internalType": "uint256",
          "name": "",
          "type": "uint256"
        }
      ],
      "name": "allMinds",
      "outputs": [
        {
          "internalType": "uint256",
          "name": "timestamp",
          "type": "uint256"
        },
        {
          "internalType": "string",
          "name": "message",
          "type": "string"
        }
      ],
      "stateMutability": "view",
      "type": "function"
    },
    {
      "inputs": [],
      "name": "close",
      "outputs": [],
      "stateMutability": "nonpayable",
      "type": "function"
    },
    {
      "inputs": [
        {
          "internalType": "uint256",
          "name": "_nonce",
          "type": "uint256"
        }
      ],
      "name": "deleteCurrentMind",
      "outputs": [],
      "stateMutability": "nonpayable",
      "type": "function"
    },
    {
      "inputs": [],
      "name": "owner",
      "outputs": [
        {
          "internalType": "address payable",
          "name": "",
          "type": "address"
        }
      ],
      "stateMutability": "view",
      "type": "function"
    },
    {
      "inputs": [],
      "name": "renounceOwnership",
      "outputs": [],
      "stateMutability": "nonpayable",
      "type": "function"
    },
    {
      "inputs": [
        {
          "internalType": "string",
          "name": "_message",
          "type": "string"
        }
      ],
      "name": "throwNewMind",
      "outputs": [],
      "stateMutability": "nonpayable",
      "type": "function"
    },
    {
      "inputs": [],
      "name": "viewAllMinds",
      "outputs": [
        {
          "components": [
            {
              "internalType": "uint256",
              "name": "timestamp",
              "type": "uint256"
            },
            {
              "internalType": "string",
              "name": "message",
              "type": "string"
            }
          ],
          "internalType": "struct TrashOfMind.Mind[]",
          "name": "",
          "type": "tuple[]"
        }
      ],
      "stateMutability": "view",
      "type": "function"
    },
    {
      "inputs": [],
      "name": "viewAllNoncesOf",
      "outputs": [
        {
          "internalType": "uint256[]",
          "name": "",
          "type": "uint256[]"
        }
      ],
      "stateMutability": "view",
      "type": "function"
    },
    {
      "inputs": [
        {
          "internalType": "uint256",
          "name": "_nonce",
          "type": "uint256"
        }
      ],
      "name": "viewMind",
      "outputs": [
        {
          "components": [
            {
              "internalType": "uint256",
              "name": "timestamp",
              "type": "uint256"
            },
            {
              "internalType": "string",
              "name": "message",
              "type": "string"
            }
          ],
          "internalType": "struct TrashOfMind.Mind",
          "name": "",
          "type": "tuple"
        }
      ],
      "stateMutability": "view",
      "type": "function"
    }
  ],
  "bytecode": "0x60806040523480156200001157600080fd5b50336000806101000a81548173ffffffffffffffffffffffffffffffffffffffff021916908373ffffffffffffffffffffffffffffffffffffffff160217905550620000986040518060400160405280601c81526020017f54484953204953205448452047454e45534953204d45535341474521000000008152506200009e60201b60201c565b620007a2565b42603c600560003373ffffffffffffffffffffffffffffffffffffffff1673ffffffffffffffffffffffffffffffffffffffff16815260200190815260200160002054620000ed919062000339565b1062000130576040517f08c379a00000000000000000000000000000000000000000000000000000000081526004016200012790620003fb565b60405180910390fd5b60006040518060400160405280428152602001838152509050600160026000600180549050815260200190815260200160002060006101000a81548160ff0219169083151502179055506001600360003373ffffffffffffffffffffffffffffffffffffffff1673ffffffffffffffffffffffffffffffffffffffff1681526020019081526020016000206000828254620001cc919062000339565b925050819055503360046000600180549050815260200190815260200160002060006101000a81548173ffffffffffffffffffffffffffffffffffffffff021916908373ffffffffffffffffffffffffffffffffffffffff16021790555060018190806001815401808255809150506001900390600052602060002090600202016000909190919091506000820151816000015560208201518160010190816200027791906200068d565b50505042600560003373ffffffffffffffffffffffffffffffffffffffff1673ffffffffffffffffffffffffffffffffffffffff168152602001908152602001600020819055507ffee8eb43ff1ca116b01a8c31081529a96b0c6b0a98e93bd51fe2415daca3d396600180549050604051620002f4919062000785565b60405180910390a15050565b6000819050919050565b7f4e487b7100000000000000000000000000000000000000000000000000000000600052601160045260246000fd5b6000620003468262000300565b9150620003538362000300565b92508282019050808211156200036e576200036d6200030a565b5b92915050565b600082825260208201905092915050565b7f506c65617365207761697420757020746f2031206d696e757465206265666f7260008201527f65207468726f77696e67206e6577206d696e6420616761696e00000000000000602082015250565b6000620003e360398362000374565b9150620003f08262000385565b604082019050919050565b600060208201905081810360008301526200041681620003d4565b9050919050565b600081519050919050565b7f4e487b7100000000000000000000000000000000000000000000000000000000600052604160045260246000fd5b7f4e487b7100000000000000000000000000000000000000000000000000000000600052602260045260246000fd5b600060028204905060018216806200049f57607f821691505b602082108103620004b557620004b462000457565b5b50919050565b60008190508160005260206000209050919050565b60006020601f8301049050919050565b600082821b905092915050565b6000600883026200051f7fffffffffffffffffffffffffffffffffffffffffffffffffffffffffffffffff82620004e0565b6200052b8683620004e0565b95508019841693508086168417925050509392505050565b6000819050919050565b60006200056e62000568620005628462000300565b62000543565b62000300565b9050919050565b6000819050919050565b6200058a836200054d565b620005a2620005998262000575565b848454620004ed565b825550505050565b600090565b620005b9620005aa565b620005c68184846200057f565b505050565b5b81811015620005ee57620005e2600082620005af565b600181019050620005cc565b5050565b601f8211156200063d576200060781620004bb565b6200061284620004d0565b8101602085101562000622578190505b6200063a6200063185620004d0565b830182620005cb565b50505b505050565b600082821c905092915050565b6000620006626000198460080262000642565b1980831691505092915050565b60006200067d83836200064f565b9150826002028217905092915050565b62000698826200041d565b67ffffffffffffffff811115620006b457620006b362000428565b5b620006c0825462000486565b620006cd828285620005f2565b600060209050601f831160018114620007055760008415620006f0578287015190505b620006fc85826200066f565b8655506200076c565b601f1984166200071586620004bb565b60005b828110156200073f5784890151825560018201915060208501945060208101905062000718565b868310156200075f57848901516200075b601f8916826200064f565b8355505b6001600288020188555050505b505050505050565b6200077f8162000300565b82525050565b60006020820190506200079c600083018462000774565b92915050565b611b7580620007b26000396000f3fe608060405234801561001057600080fd5b50600436106100935760003560e01c806343d726d61161006657806343d726d61461011f578063715018a61461012957806378daa0f7146101335780638da5cb5b14610163578063d05853741461018157610093565b8063126267f8146100985780631d299489146100b457806331098be8146100d057806332e1c33d14610101575b600080fd5b6100b260048036038101906100ad9190610dd4565b61019f565b005b6100ce60048036038101906100c99190610f47565b6104b8565b005b6100ea60048036038101906100e59190610dd4565b61070f565b6040516100f892919061101e565b60405180910390f35b6101096107cb565b604051610116919061110c565b60405180910390f35b61012761091b565b005b6101316109e2565b005b61014d60048036038101906101489190610dd4565b610ab3565b60405161015a91906111b5565b60405180910390f35b61016b610bf4565b6040516101789190611218565b60405180910390f35b610189610c18565b6040516101969190611332565b60405180910390f35b80600115156002600083815260200190815260200160002060009054906101000a900460ff16151514610207576040517f08c379a00000000000000000000000000000000000000000000000000000000081526004016101fe906113a0565b60405180910390fd5b60006001808054905061021a91906113ef565b90503373ffffffffffffffffffffffffffffffffffffffff166004600085815260200190815260200160002060009054906101000a900473ffffffffffffffffffffffffffffffffffffffff1673ffffffffffffffffffffffffffffffffffffffff16146102bd576040517f08c379a00000000000000000000000000000000000000000000000000000000081526004016102b490611495565b60405180910390fd5b6001805490508310610304576040517f08c379a00000000000000000000000000000000000000000000000000000000081526004016102fb90611527565b60405180910390fd5b600360003373ffffffffffffffffffffffffffffffffffffffff1673ffffffffffffffffffffffffffffffffffffffff168152602001908152602001600020600081548092919061035490611547565b91905055506004600082815260200190815260200160002060009054906101000a900473ffffffffffffffffffffffffffffffffffffffff166004600085815260200190815260200160002060006101000a81548173ffffffffffffffffffffffffffffffffffffffff021916908373ffffffffffffffffffffffffffffffffffffffff160217905550600181815481106103f2576103f1611570565b5b90600052602060002090600202016001848154811061041457610413611570565b5b9060005260206000209060020201600082015481600001556001820181600101908161044091906117c1565b509050506001805480610456576104556118a9565b5b60019003818190600052602060002090600202016000808201600090556001820160006104839190610d13565b505090557f7cc7b5b00b6227545dc4b7ae13e198e3e6a5414224c5f52c0303eb36589cd1a360405160405180910390a1505050565b42603c600560003373ffffffffffffffffffffffffffffffffffffffff1673ffffffffffffffffffffffffffffffffffffffff1681526020019081526020016000205461050591906118d8565b10610545576040517f08c379a000000000000000000000000000000000000000000000000000000000815260040161053c9061197e565b60405180910390fd5b60006040518060400160405280428152602001838152509050600160026000600180549050815260200190815260200160002060006101000a81548160ff0219169083151502179055506001600360003373ffffffffffffffffffffffffffffffffffffffff1673ffffffffffffffffffffffffffffffffffffffff16815260200190815260200160002060008282546105df91906118d8565b925050819055503360046000600180549050815260200190815260200160002060006101000a81548173ffffffffffffffffffffffffffffffffffffffff021916908373ffffffffffffffffffffffffffffffffffffffff1602179055506001819080600181540180825580915050600190039060005260206000209060020201600090919091909150600082015181600001556020820151816001019081610688919061199e565b50505042600560003373ffffffffffffffffffffffffffffffffffffffff1673ffffffffffffffffffffffffffffffffffffffff168152602001908152602001600020819055507ffee8eb43ff1ca116b01a8c31081529a96b0c6b0a98e93bd51fe2415daca3d3966001805490506040516107039190611a70565b60405180910390a15050565b6001818154811061071f57600080fd5b9060005260206000209060020201600091509050806000015490806001018054610748906115ce565b80601f0160208091040260200160405190810160405280929190818152602001828054610774906115ce565b80156107c15780601f10610796576101008083540402835291602001916107c1565b820191906000526020600020905b8154815290600101906020018083116107a457829003601f168201915b5050505050905082565b60606000600360003373ffffffffffffffffffffffffffffffffffffffff1673ffffffffffffffffffffffffffffffffffffffff1681526020019081526020016000205467ffffffffffffffff81111561082857610827610e1c565b5b6040519080825280602002602001820160405280156108565781602001602082028036833780820191505090505b5090506000805b600180549050811015610912573373ffffffffffffffffffffffffffffffffffffffff166004600083815260200190815260200160002060009054906101000a900473ffffffffffffffffffffffffffffffffffffffff1673ffffffffffffffffffffffffffffffffffffffff16036108ff57808383815181106108e4576108e3611570565b5b60200260200101818152505081806108fb90611a8b565b9250505b808061090a90611a8b565b91505061085d565b50819250505090565b60008054906101000a900473ffffffffffffffffffffffffffffffffffffffff1673ffffffffffffffffffffffffffffffffffffffff163373ffffffffffffffffffffffffffffffffffffffff16146109a9576040517f08c379a00000000000000000000000000000000000000000000000000000000081526004016109a090611b1f565b60405180910390fd5b60008054906101000a900473ffffffffffffffffffffffffffffffffffffffff1673ffffffffffffffffffffffffffffffffffffffff16ff5b60008054906101000a900473ffffffffffffffffffffffffffffffffffffffff1673ffffffffffffffffffffffffffffffffffffffff163373ffffffffffffffffffffffffffffffffffffffff1614610a70576040517f08c379a0000000000000000000000000000000000000000000000000000000008152600401610a6790611b1f565b60405180910390fd5b60008060006101000a81548173ffffffffffffffffffffffffffffffffffffffff021916908373ffffffffffffffffffffffffffffffffffffffff160217905550565b610abb610d53565b81600115156002600083815260200190815260200160002060009054906101000a900460ff16151514610b23576040517f08c379a0000000000000000000000000000000000000000000000000000000008152600401610b1a906113a0565b60405180910390fd5b60018381548110610b3757610b36611570565b5b906000526020600020906002020160405180604001604052908160008201548152602001600182018054610b6a906115ce565b80601f0160208091040260200160405190810160405280929190818152602001828054610b96906115ce565b8015610be35780601f10610bb857610100808354040283529160200191610be3565b820191906000526020600020905b815481529060010190602001808311610bc657829003601f168201915b505050505081525050915050919050565b60008054906101000a900473ffffffffffffffffffffffffffffffffffffffff1681565b60606001805480602002602001604051908101604052809291908181526020016000905b82821015610d0a578382906000526020600020906002020160405180604001604052908160008201548152602001600182018054610c79906115ce565b80601f0160208091040260200160405190810160405280929190818152602001828054610ca5906115ce565b8015610cf25780601f10610cc757610100808354040283529160200191610cf2565b820191906000526020600020905b815481529060010190602001808311610cd557829003601f168201915b50505050508152505081526020019060010190610c3c565b50505050905090565b508054610d1f906115ce565b6000825580601f10610d315750610d50565b601f016020900490600052602060002090810190610d4f9190610d6d565b5b50565b604051806040016040528060008152602001606081525090565b5b80821115610d86576000816000905550600101610d6e565b5090565b6000604051905090565b600080fd5b600080fd5b6000819050919050565b610db181610d9e565b8114610dbc57600080fd5b50565b600081359050610dce81610da8565b92915050565b600060208284031215610dea57610de9610d94565b5b6000610df884828501610dbf565b91505092915050565b600080fd5b600080fd5b6000601f19601f8301169050919050565b7f4e487b7100000000000000000000000000000000000000000000000000000000600052604160045260246000fd5b610e5482610e0b565b810181811067ffffffffffffffff82111715610e7357610e72610e1c565b5b80604052505050565b6000610e86610d8a565b9050610e928282610e4b565b919050565b600067ffffffffffffffff821115610eb257610eb1610e1c565b5b610ebb82610e0b565b9050602081019050919050565b82818337600083830152505050565b6000610eea610ee584610e97565b610e7c565b905082815260208101848484011115610f0657610f05610e06565b5b610f11848285610ec8565b509392505050565b600082601f830112610f2e57610f2d610e01565b5b8135610f3e848260208601610ed7565b91505092915050565b600060208284031215610f5d57610f5c610d94565b5b600082013567ffffffffffffffff811115610f7b57610f7a610d99565b5b610f8784828501610f19565b91505092915050565b610f9981610d9e565b82525050565b600081519050919050565b600082825260208201905092915050565b60005b83811015610fd9578082015181840152602081019050610fbe565b60008484015250505050565b6000610ff082610f9f565b610ffa8185610faa565b935061100a818560208601610fbb565b61101381610e0b565b840191505092915050565b60006040820190506110336000830185610f90565b81810360208301526110458184610fe5565b90509392505050565b600081519050919050565b600082825260208201905092915050565b6000819050602082019050919050565b61108381610d9e565b82525050565b6000611095838361107a565b60208301905092915050565b6000602082019050919050565b60006110b98261104e565b6110c38185611059565b93506110ce8361106a565b8060005b838110156110ff5781516110e68882611089565b97506110f1836110a1565b9250506001810190506110d2565b5085935050505092915050565b6000602082019050818103600083015261112681846110ae565b905092915050565b600082825260208201905092915050565b600061114a82610f9f565b611154818561112e565b9350611164818560208601610fbb565b61116d81610e0b565b840191505092915050565b6000604083016000830151611190600086018261107a565b50602083015184820360208601526111a8828261113f565b9150508091505092915050565b600060208201905081810360008301526111cf8184611178565b905092915050565b600073ffffffffffffffffffffffffffffffffffffffff82169050919050565b6000611202826111d7565b9050919050565b611212816111f7565b82525050565b600060208201905061122d6000830184611209565b92915050565b600081519050919050565b600082825260208201905092915050565b6000819050602082019050919050565b6000604083016000830151611277600086018261107a565b506020830151848203602086015261128f828261113f565b9150508091505092915050565b60006112a8838361125f565b905092915050565b6000602082019050919050565b60006112c882611233565b6112d2818561123e565b9350836020820285016112e48561124f565b8060005b858110156113205784840389528151611301858261129c565b945061130c836112b0565b925060208a019950506001810190506112e8565b50829750879550505050505092915050565b6000602082019050818103600083015261134c81846112bd565b905092915050565b7f4d696e64206e6f74206578697374656421000000000000000000000000000000600082015250565b600061138a601183610faa565b915061139582611354565b602082019050919050565b600060208201905081810360008301526113b98161137d565b9050919050565b7f4e487b7100000000000000000000000000000000000000000000000000000000600052601160045260246000fd5b60006113fa82610d9e565b915061140583610d9e565b925082820390508181111561141d5761141c6113c0565b5b92915050565b7f596f7520617265206e6f7420746865206f776e6572206f662074686973206d6960008201527f6e64210000000000000000000000000000000000000000000000000000000000602082015250565b600061147f602383610faa565b915061148a82611423565b604082019050919050565b600060208201905081810360008301526114ae81611472565b9050919050565b7f506c65617365207761697420666f72206174206c656173742032206d696e647360008201527f20617661696c61626c6521000000000000000000000000000000000000000000602082015250565b6000611511602b83610faa565b915061151c826114b5565b604082019050919050565b6000602082019050818103600083015261154081611504565b9050919050565b600061155282610d9e565b915060008203611565576115646113c0565b5b600182039050919050565b7f4e487b7100000000000000000000000000000000000000000000000000000000600052603260045260246000fd5b7f4e487b7100000000000000000000000000000000000000000000000000000000600052602260045260246000fd5b600060028204905060018216806115e657607f821691505b6020821081036115f9576115f861159f565b5b50919050565b60008154905061160e816115ce565b9050919050565b60008190508160005260206000209050919050565b60006020601f8301049050919050565b600082821b905092915050565b6000600883026116777fffffffffffffffffffffffffffffffffffffffffffffffffffffffffffffffff8261163a565b611681868361163a565b95508019841693508086168417925050509392505050565b6000819050919050565b60006116be6116b96116b484610d9e565b611699565b610d9e565b9050919050565b6000819050919050565b6116d8836116a3565b6116ec6116e4826116c5565b848454611647565b825550505050565b600090565b6117016116f4565b61170c8184846116cf565b505050565b5b81811015611730576117256000826116f9565b600181019050611712565b5050565b601f8211156117755761174681611615565b61174f8461162a565b8101602085101561175e578190505b61177261176a8561162a565b830182611711565b50505b505050565b600082821c905092915050565b60006117986000198460080261177a565b1980831691505092915050565b60006117b18383611787565b9150826002028217905092915050565b8181036117cf5750506118a7565b6117d8826115ff565b67ffffffffffffffff8111156117f1576117f0610e1c565b5b6117fb82546115ce565b611806828285611734565b6000601f8311600181146118355760008415611823578287015490505b61182d85826117a5565b8655506118a0565b601f19841661184387611615565b965061184e86611615565b60005b8281101561187657848901548255600182019150600185019450602081019050611851565b86831015611893578489015461188f601f891682611787565b8355505b6001600288020188555050505b5050505050505b565b7f4e487b7100000000000000000000000000000000000000000000000000000000600052603160045260246000fd5b60006118e382610d9e565b91506118ee83610d9e565b9250828201905080821115611906576119056113c0565b5b92915050565b7f506c65617365207761697420757020746f2031206d696e757465206265666f7260008201527f65207468726f77696e67206e6577206d696e6420616761696e00000000000000602082015250565b6000611968603983610faa565b91506119738261190c565b604082019050919050565b600060208201905081810360008301526119978161195b565b9050919050565b6119a782610f9f565b67ffffffffffffffff8111156119c0576119bf610e1c565b5b6119ca82546115ce565b6119d5828285611734565b600060209050601f831160018114611a0857600084156119f6578287015190505b611a0085826117a5565b865550611a68565b601f198416611a1686611615565b60005b82811015611a3e57848901518255600182019150602085019450602081019050611a19565b86831015611a5b5784890151611a57601f891682611787565b8355505b6001600288020188555050505b505050505050565b6000602082019050611a856000830184610f90565b92915050565b6000611a9682610d9e565b91507fffffffffffffffffffffffffffffffffffffffffffffffffffffffffffffffff8203611ac857611ac76113c0565b5b600182019050919050565b7f596f7520617265206e6f7420746865206f776e65720000000000000000000000600082015250565b6000611b09601583610faa565b9150611b1482611ad3565b602082019050919050565b60006020820190508181036000830152611b3881611afc565b905091905056fea2646970667358221220763293af654f03e43983651aadb21c047c36e5e294bc90ed6b75d0cb199652e464736f6c63430008110033",
  "linkReferences": {},
  "deployedLinkReferences": {}
}