{
  "_format": "hh-sol-artifact-1",
  "contractName": "TrashOfMind",
  "sourceName": "contracts/TrashOfMind.sol",
  "abi": [
    {
      "inputs": [],
      "stateMutability": "nonpayable",
      "type": "constructor"
    },
    {
      "anonymous": false,
      "inputs": [],
      "name": "deleteMind",
      "type": "event"
    },
    {
      "anonymous": false,
      "inputs": [
        {
          "indexed": false,
          "internalType": "uint256",
          "name": "_currentIndex",
          "type": "uint256"
        }
      ],
      "name": "throwMind",
      "type": "event"
    },
    {
      "inputs": [
        {
          "internalType": "uint256",
          "name": "",
          "type": "uint256"
        }
      ],
      "name": "allMinds",
      "outputs": [
        {
          "internalType": "uint256",
          "name": "timestamp",
          "type": "uint256"
        },
        {
          "internalType": "string",
          "name": "message",
          "type": "string"
        }
      ],
      "stateMutability": "view",
      "type": "function"
    },
    {
      "inputs": [],
      "name": "close",
      "outputs": [],
      "stateMutability": "nonpayable",
      "type": "function"
    },
    {
      "inputs": [
        {
          "internalType": "uint256",
          "name": "_nonce",
          "type": "uint256"
        }
      ],
      "name": "deleteCurrentMind",
      "outputs": [],
      "stateMutability": "nonpayable",
      "type": "function"
    },
    {
      "inputs": [],
      "name": "owner",
      "outputs": [
        {
          "internalType": "address payable",
          "name": "",
          "type": "address"
        }
      ],
      "stateMutability": "view",
      "type": "function"
    },
    {
      "inputs": [],
      "name": "renounceOwnership",
      "outputs": [],
      "stateMutability": "nonpayable",
      "type": "function"
    },
    {
      "inputs": [
        {
          "internalType": "string",
          "name": "_message",
          "type": "string"
        }
      ],
      "name": "throwNewMind",
      "outputs": [],
      "stateMutability": "nonpayable",
      "type": "function"
    },
    {
      "inputs": [
        {
          "internalType": "address",
          "name": "_address",
          "type": "address"
        }
      ],
      "name": "viewAllNoncesOf",
      "outputs": [
        {
          "internalType": "uint256[]",
          "name": "",
          "type": "uint256[]"
        }
      ],
      "stateMutability": "view",
      "type": "function"
    },
    {
      "inputs": [
        {
          "internalType": "uint256",
          "name": "_nonce",
          "type": "uint256"
        }
      ],
      "name": "viewMind",
      "outputs": [
        {
          "components": [
            {
              "internalType": "uint256",
              "name": "timestamp",
              "type": "uint256"
            },
            {
              "internalType": "string",
              "name": "message",
              "type": "string"
            }
          ],
          "internalType": "struct TrashOfMind.Mind",
          "name": "",
          "type": "tuple"
        }
      ],
      "stateMutability": "view",
      "type": "function"
    }
  ],
  "bytecode": "0x60806040523480156200001157600080fd5b50336000806101000a81548173ffffffffffffffffffffffffffffffffffffffff021916908373ffffffffffffffffffffffffffffffffffffffff160217905550620000986040518060400160405280601c81526020017f54484953204953205448452047454e45534953204d45535341474521000000008152506200009e60201b60201c565b620007a2565b42603c600560003373ffffffffffffffffffffffffffffffffffffffff1673ffffffffffffffffffffffffffffffffffffffff16815260200190815260200160002054620000ed919062000339565b1062000130576040517f08c379a00000000000000000000000000000000000000000000000000000000081526004016200012790620003fb565b60405180910390fd5b60006040518060400160405280428152602001838152509050600160026000600180549050815260200190815260200160002060006101000a81548160ff0219169083151502179055506001600360003373ffffffffffffffffffffffffffffffffffffffff1673ffffffffffffffffffffffffffffffffffffffff1681526020019081526020016000206000828254620001cc919062000339565b925050819055503360046000600180549050815260200190815260200160002060006101000a81548173ffffffffffffffffffffffffffffffffffffffff021916908373ffffffffffffffffffffffffffffffffffffffff16021790555060018190806001815401808255809150506001900390600052602060002090600202016000909190919091506000820151816000015560208201518160010190816200027791906200068d565b50505042600560003373ffffffffffffffffffffffffffffffffffffffff1673ffffffffffffffffffffffffffffffffffffffff168152602001908152602001600020819055507ffee8eb43ff1ca116b01a8c31081529a96b0c6b0a98e93bd51fe2415daca3d396600180549050604051620002f4919062000785565b60405180910390a15050565b6000819050919050565b7f4e487b7100000000000000000000000000000000000000000000000000000000600052601160045260246000fd5b6000620003468262000300565b9150620003538362000300565b92508282019050808211156200036e576200036d6200030a565b5b92915050565b600082825260208201905092915050565b7f506c65617365207761697420757020746f2031206d696e757465206265666f7260008201527f65207468726f77696e67206e6577206d696e6420616761696e00000000000000602082015250565b6000620003e360398362000374565b9150620003f08262000385565b604082019050919050565b600060208201905081810360008301526200041681620003d4565b9050919050565b600081519050919050565b7f4e487b7100000000000000000000000000000000000000000000000000000000600052604160045260246000fd5b7f4e487b7100000000000000000000000000000000000000000000000000000000600052602260045260246000fd5b600060028204905060018216806200049f57607f821691505b602082108103620004b557620004b462000457565b5b50919050565b60008190508160005260206000209050919050565b60006020601f8301049050919050565b600082821b905092915050565b6000600883026200051f7fffffffffffffffffffffffffffffffffffffffffffffffffffffffffffffffff82620004e0565b6200052b8683620004e0565b95508019841693508086168417925050509392505050565b6000819050919050565b60006200056e62000568620005628462000300565b62000543565b62000300565b9050919050565b6000819050919050565b6200058a836200054d565b620005a2620005998262000575565b848454620004ed565b825550505050565b600090565b620005b9620005aa565b620005c68184846200057f565b505050565b5b81811015620005ee57620005e2600082620005af565b600181019050620005cc565b5050565b601f8211156200063d576200060781620004bb565b6200061284620004d0565b8101602085101562000622578190505b6200063a6200063185620004d0565b830182620005cb565b50505b505050565b600082821c905092915050565b6000620006626000198460080262000642565b1980831691505092915050565b60006200067d83836200064f565b9150826002028217905092915050565b62000698826200041d565b67ffffffffffffffff811115620006b457620006b362000428565b5b620006c0825462000486565b620006cd828285620005f2565b600060209050601f831160018114620007055760008415620006f0578287015190505b620006fc85826200066f565b8655506200076c565b601f1984166200071586620004bb565b60005b828110156200073f5784890151825560018201915060208501945060208101905062000718565b868310156200075f57848901516200075b601f8916826200064f565b8355505b6001600288020188555050505b505050505050565b6200077f8162000300565b82525050565b60006020820190506200079c600083018462000774565b92915050565b6119af80620007b26000396000f3fe608060405234801561001057600080fd5b50600436106100885760003560e01c8063715018a61161005b578063715018a61461010057806378daa0f71461010a5780638da5cb5b1461013a578063d6aa3b221461015857610088565b8063126267f81461008d5780631d299489146100a957806331098be8146100c557806343d726d6146100f6575b600080fd5b6100a760048036038101906100a29190610cc4565b610188565b005b6100c360048036038101906100be9190610e37565b6104a1565b005b6100df60048036038101906100da9190610cc4565b6106f8565b6040516100ed929190610f0e565b60405180910390f35b6100fe6107b4565b005b61010861087b565b005b610124600480360381019061011f9190610cc4565b61094c565b6040516101319190610fd4565b60405180910390f35b610142610a8d565b60405161014f9190611037565b60405180910390f35b610172600480360381019061016d9190611090565b610ab1565b60405161017f919061116c565b60405180910390f35b80600115156002600083815260200190815260200160002060009054906101000a900460ff161515146101f0576040517f08c379a00000000000000000000000000000000000000000000000000000000081526004016101e7906111da565b60405180910390fd5b6000600180805490506102039190611229565b90503373ffffffffffffffffffffffffffffffffffffffff166004600085815260200190815260200160002060009054906101000a900473ffffffffffffffffffffffffffffffffffffffff1673ffffffffffffffffffffffffffffffffffffffff16146102a6576040517f08c379a000000000000000000000000000000000000000000000000000000000815260040161029d906112cf565b60405180910390fd5b60018054905083106102ed576040517f08c379a00000000000000000000000000000000000000000000000000000000081526004016102e490611361565b60405180910390fd5b600360003373ffffffffffffffffffffffffffffffffffffffff1673ffffffffffffffffffffffffffffffffffffffff168152602001908152602001600020600081548092919061033d90611381565b91905055506004600082815260200190815260200160002060009054906101000a900473ffffffffffffffffffffffffffffffffffffffff166004600085815260200190815260200160002060006101000a81548173ffffffffffffffffffffffffffffffffffffffff021916908373ffffffffffffffffffffffffffffffffffffffff160217905550600181815481106103db576103da6113aa565b5b9060005260206000209060020201600184815481106103fd576103fc6113aa565b5b9060005260206000209060020201600082015481600001556001820181600101908161042991906115fb565b50905050600180548061043f5761043e6116e3565b5b600190038181906000526020600020906002020160008082016000905560018201600061046c9190610c03565b505090557f7cc7b5b00b6227545dc4b7ae13e198e3e6a5414224c5f52c0303eb36589cd1a360405160405180910390a1505050565b42603c600560003373ffffffffffffffffffffffffffffffffffffffff1673ffffffffffffffffffffffffffffffffffffffff168152602001908152602001600020546104ee9190611712565b1061052e576040517f08c379a0000000000000000000000000000000000000000000000000000000008152600401610525906117b8565b60405180910390fd5b60006040518060400160405280428152602001838152509050600160026000600180549050815260200190815260200160002060006101000a81548160ff0219169083151502179055506001600360003373ffffffffffffffffffffffffffffffffffffffff1673ffffffffffffffffffffffffffffffffffffffff16815260200190815260200160002060008282546105c89190611712565b925050819055503360046000600180549050815260200190815260200160002060006101000a81548173ffffffffffffffffffffffffffffffffffffffff021916908373ffffffffffffffffffffffffffffffffffffffff160217905550600181908060018154018082558091505060019003906000526020600020906002020160009091909190915060008201518160000155602082015181600101908161067191906117d8565b50505042600560003373ffffffffffffffffffffffffffffffffffffffff1673ffffffffffffffffffffffffffffffffffffffff168152602001908152602001600020819055507ffee8eb43ff1ca116b01a8c31081529a96b0c6b0a98e93bd51fe2415daca3d3966001805490506040516106ec91906118aa565b60405180910390a15050565b6001818154811061070857600080fd5b906000526020600020906002020160009150905080600001549080600101805461073190611408565b80601f016020809104026020016040519081016040528092919081815260200182805461075d90611408565b80156107aa5780601f1061077f576101008083540402835291602001916107aa565b820191906000526020600020905b81548152906001019060200180831161078d57829003601f168201915b5050505050905082565b60008054906101000a900473ffffffffffffffffffffffffffffffffffffffff1673ffffffffffffffffffffffffffffffffffffffff163373ffffffffffffffffffffffffffffffffffffffff1614610842576040517f08c379a000000000000000000000000000000000000000000000000000000000815260040161083990611911565b60405180910390fd5b60008054906101000a900473ffffffffffffffffffffffffffffffffffffffff1673ffffffffffffffffffffffffffffffffffffffff16ff5b60008054906101000a900473ffffffffffffffffffffffffffffffffffffffff1673ffffffffffffffffffffffffffffffffffffffff163373ffffffffffffffffffffffffffffffffffffffff1614610909576040517f08c379a000000000000000000000000000000000000000000000000000000000815260040161090090611911565b60405180910390fd5b60008060006101000a81548173ffffffffffffffffffffffffffffffffffffffff021916908373ffffffffffffffffffffffffffffffffffffffff160217905550565b610954610c43565b81600115156002600083815260200190815260200160002060009054906101000a900460ff161515146109bc576040517f08c379a00000000000000000000000000000000000000000000000000000000081526004016109b3906111da565b60405180910390fd5b600183815481106109d0576109cf6113aa565b5b906000526020600020906002020160405180604001604052908160008201548152602001600182018054610a0390611408565b80601f0160208091040260200160405190810160405280929190818152602001828054610a2f90611408565b8015610a7c5780601f10610a5157610100808354040283529160200191610a7c565b820191906000526020600020905b815481529060010190602001808311610a5f57829003601f168201915b505050505081525050915050919050565b60008054906101000a900473ffffffffffffffffffffffffffffffffffffffff1681565b60606000600360008473ffffffffffffffffffffffffffffffffffffffff1673ffffffffffffffffffffffffffffffffffffffff1681526020019081526020016000205467ffffffffffffffff811115610b0e57610b0d610d0c565b5b604051908082528060200260200182016040528015610b3c5781602001602082028036833780820191505090505b5090506000805b600180549050811015610bf8578473ffffffffffffffffffffffffffffffffffffffff166004600083815260200190815260200160002060009054906101000a900473ffffffffffffffffffffffffffffffffffffffff1673ffffffffffffffffffffffffffffffffffffffff1603610be55780838381518110610bca57610bc96113aa565b5b6020026020010181815250508180610be190611931565b9250505b8080610bf090611931565b915050610b43565b508192505050919050565b508054610c0f90611408565b6000825580601f10610c215750610c40565b601f016020900490600052602060002090810190610c3f9190610c5d565b5b50565b604051806040016040528060008152602001606081525090565b5b80821115610c76576000816000905550600101610c5e565b5090565b6000604051905090565b600080fd5b600080fd5b6000819050919050565b610ca181610c8e565b8114610cac57600080fd5b50565b600081359050610cbe81610c98565b92915050565b600060208284031215610cda57610cd9610c84565b5b6000610ce884828501610caf565b91505092915050565b600080fd5b600080fd5b6000601f19601f8301169050919050565b7f4e487b7100000000000000000000000000000000000000000000000000000000600052604160045260246000fd5b610d4482610cfb565b810181811067ffffffffffffffff82111715610d6357610d62610d0c565b5b80604052505050565b6000610d76610c7a565b9050610d828282610d3b565b919050565b600067ffffffffffffffff821115610da257610da1610d0c565b5b610dab82610cfb565b9050602081019050919050565b82818337600083830152505050565b6000610dda610dd584610d87565b610d6c565b905082815260208101848484011115610df657610df5610cf6565b5b610e01848285610db8565b509392505050565b600082601f830112610e1e57610e1d610cf1565b5b8135610e2e848260208601610dc7565b91505092915050565b600060208284031215610e4d57610e4c610c84565b5b600082013567ffffffffffffffff811115610e6b57610e6a610c89565b5b610e7784828501610e09565b91505092915050565b610e8981610c8e565b82525050565b600081519050919050565b600082825260208201905092915050565b60005b83811015610ec9578082015181840152602081019050610eae565b60008484015250505050565b6000610ee082610e8f565b610eea8185610e9a565b9350610efa818560208601610eab565b610f0381610cfb565b840191505092915050565b6000604082019050610f236000830185610e80565b8181036020830152610f358184610ed5565b90509392505050565b610f4781610c8e565b82525050565b600082825260208201905092915050565b6000610f6982610e8f565b610f738185610f4d565b9350610f83818560208601610eab565b610f8c81610cfb565b840191505092915050565b6000604083016000830151610faf6000860182610f3e565b5060208301518482036020860152610fc78282610f5e565b9150508091505092915050565b60006020820190508181036000830152610fee8184610f97565b905092915050565b600073ffffffffffffffffffffffffffffffffffffffff82169050919050565b600061102182610ff6565b9050919050565b61103181611016565b82525050565b600060208201905061104c6000830184611028565b92915050565b600061105d82610ff6565b9050919050565b61106d81611052565b811461107857600080fd5b50565b60008135905061108a81611064565b92915050565b6000602082840312156110a6576110a5610c84565b5b60006110b48482850161107b565b91505092915050565b600081519050919050565b600082825260208201905092915050565b6000819050602082019050919050565b60006110f58383610f3e565b60208301905092915050565b6000602082019050919050565b6000611119826110bd565b61112381856110c8565b935061112e836110d9565b8060005b8381101561115f57815161114688826110e9565b975061115183611101565b925050600181019050611132565b5085935050505092915050565b60006020820190508181036000830152611186818461110e565b905092915050565b7f4d696e64206e6f74206578697374656421000000000000000000000000000000600082015250565b60006111c4601183610e9a565b91506111cf8261118e565b602082019050919050565b600060208201905081810360008301526111f3816111b7565b9050919050565b7f4e487b7100000000000000000000000000000000000000000000000000000000600052601160045260246000fd5b600061123482610c8e565b915061123f83610c8e565b9250828203905081811115611257576112566111fa565b5b92915050565b7f596f7520617265206e6f7420746865206f776e6572206f662074686973206d6960008201527f6e64210000000000000000000000000000000000000000000000000000000000602082015250565b60006112b9602383610e9a565b91506112c48261125d565b604082019050919050565b600060208201905081810360008301526112e8816112ac565b9050919050565b7f506c65617365207761697420666f72206174206c656173742032206d696e647360008201527f20617661696c61626c6521000000000000000000000000000000000000000000602082015250565b600061134b602b83610e9a565b9150611356826112ef565b604082019050919050565b6000602082019050818103600083015261137a8161133e565b9050919050565b600061138c82610c8e565b91506000820361139f5761139e6111fa565b5b600182039050919050565b7f4e487b7100000000000000000000000000000000000000000000000000000000600052603260045260246000fd5b7f4e487b7100000000000000000000000000000000000000000000000000000000600052602260045260246000fd5b6000600282049050600182168061142057607f821691505b602082108103611433576114326113d9565b5b50919050565b60008154905061144881611408565b9050919050565b60008190508160005260206000209050919050565b60006020601f8301049050919050565b600082821b905092915050565b6000600883026114b17fffffffffffffffffffffffffffffffffffffffffffffffffffffffffffffffff82611474565b6114bb8683611474565b95508019841693508086168417925050509392505050565b6000819050919050565b60006114f86114f36114ee84610c8e565b6114d3565b610c8e565b9050919050565b6000819050919050565b611512836114dd565b61152661151e826114ff565b848454611481565b825550505050565b600090565b61153b61152e565b611546818484611509565b505050565b5b8181101561156a5761155f600082611533565b60018101905061154c565b5050565b601f8211156115af576115808161144f565b61158984611464565b81016020851015611598578190505b6115ac6115a485611464565b83018261154b565b50505b505050565b600082821c905092915050565b60006115d2600019846008026115b4565b1980831691505092915050565b60006115eb83836115c1565b9150826002028217905092915050565b8181036116095750506116e1565b61161282611439565b67ffffffffffffffff81111561162b5761162a610d0c565b5b6116358254611408565b61164082828561156e565b6000601f83116001811461166f576000841561165d578287015490505b61166785826115df565b8655506116da565b601f19841661167d8761144f565b96506116888661144f565b60005b828110156116b05784890154825560018201915060018501945060208101905061168b565b868310156116cd57848901546116c9601f8916826115c1565b8355505b6001600288020188555050505b5050505050505b565b7f4e487b7100000000000000000000000000000000000000000000000000000000600052603160045260246000fd5b600061171d82610c8e565b915061172883610c8e565b92508282019050808211156117405761173f6111fa565b5b92915050565b7f506c65617365207761697420757020746f2031206d696e757465206265666f7260008201527f65207468726f77696e67206e6577206d696e6420616761696e00000000000000602082015250565b60006117a2603983610e9a565b91506117ad82611746565b604082019050919050565b600060208201905081810360008301526117d181611795565b9050919050565b6117e182610e8f565b67ffffffffffffffff8111156117fa576117f9610d0c565b5b6118048254611408565b61180f82828561156e565b600060209050601f8311600181146118425760008415611830578287015190505b61183a85826115df565b8655506118a2565b601f1984166118508661144f565b60005b8281101561187857848901518255600182019150602085019450602081019050611853565b868310156118955784890151611891601f8916826115c1565b8355505b6001600288020188555050505b505050505050565b60006020820190506118bf6000830184610e80565b92915050565b7f596f7520617265206e6f7420746865206f776e65720000000000000000000000600082015250565b60006118fb601583610e9a565b9150611906826118c5565b602082019050919050565b6000602082019050818103600083015261192a816118ee565b9050919050565b600061193c82610c8e565b91507fffffffffffffffffffffffffffffffffffffffffffffffffffffffffffffffff820361196e5761196d6111fa565b5b60018201905091905056fea26469706673582212207f3d0c8e3465fd47700edc6420c814722634bad670272c319dae992ad3ca1a1e64736f6c63430008110033",
  "linkReferences": {},
  "deployedLinkReferences": {}
}