{
  "_format": "hh-sol-artifact-1",
  "contractName": "TrashOfMind",
  "sourceName": "contracts/TrashOfMind.sol",
  "abi": [
    {
      "inputs": [],
      "stateMutability": "nonpayable",
      "type": "constructor"
    },
    {
      "anonymous": false,
      "inputs": [
        {
          "indexed": false,
          "internalType": "uint256",
          "name": "_nonce",
          "type": "uint256"
        }
      ],
      "name": "throwMind",
      "type": "event"
    },
    {
      "inputs": [],
      "name": "close",
      "outputs": [],
      "stateMutability": "nonpayable",
      "type": "function"
    },
    {
      "inputs": [
        {
          "internalType": "uint256",
          "name": "_nonce",
          "type": "uint256"
        }
      ],
      "name": "deleteOldMind",
      "outputs": [],
      "stateMutability": "nonpayable",
      "type": "function"
    },
    {
      "inputs": [],
      "name": "owner",
      "outputs": [
        {
          "internalType": "address payable",
          "name": "",
          "type": "address"
        }
      ],
      "stateMutability": "view",
      "type": "function"
    },
    {
      "inputs": [],
      "name": "renounceOwnership",
      "outputs": [],
      "stateMutability": "nonpayable",
      "type": "function"
    },
    {
      "inputs": [
        {
          "internalType": "string",
          "name": "_message",
          "type": "string"
        }
      ],
      "name": "throwNewMind",
      "outputs": [],
      "stateMutability": "nonpayable",
      "type": "function"
    },
    {
      "inputs": [],
      "name": "viewAllNoncesOfAddress",
      "outputs": [
        {
          "internalType": "uint256[]",
          "name": "",
          "type": "uint256[]"
        }
      ],
      "stateMutability": "view",
      "type": "function"
    },
    {
      "inputs": [],
      "name": "viewAllThoughts",
      "outputs": [
        {
          "components": [
            {
              "internalType": "string",
              "name": "mind",
              "type": "string"
            },
            {
              "internalType": "uint256",
              "name": "timestamp",
              "type": "uint256"
            }
          ],
          "internalType": "struct TrashOfMind.Thought[]",
          "name": "",
          "type": "tuple[]"
        }
      ],
      "stateMutability": "view",
      "type": "function"
    },
    {
      "inputs": [
        {
          "internalType": "uint256",
          "name": "_nonce",
          "type": "uint256"
        }
      ],
      "name": "viewSpecificMind",
      "outputs": [
        {
          "components": [
            {
              "internalType": "string",
              "name": "mind",
              "type": "string"
            },
            {
              "internalType": "uint256",
              "name": "timestamp",
              "type": "uint256"
            }
          ],
          "internalType": "struct TrashOfMind.Thought",
          "name": "",
          "type": "tuple"
        }
      ],
      "stateMutability": "view",
      "type": "function"
    }
  ],
  "bytecode": "0x608060405234801561001057600080fd5b50336000806101000a81548173ffffffffffffffffffffffffffffffffffffffff021916908373ffffffffffffffffffffffffffffffffffffffff1602179055506119e8806100606000396000f3fe608060405234801561001057600080fd5b50600436106100885760003560e01c8063535a1b221161005b578063535a1b22146100ef578063715018a61461011f5780638da5cb5b14610129578063902bdf681461014757610088565b80630df754281461008d5780631d299489146100ab57806343d726d6146100c757806344aa2f73146100d1575b600080fd5b610095610163565b6040516100a29190610d2e565b60405180910390f35b6100c560048036038101906100c09190610eaa565b6102b3565b005b6100cf61050a565b005b6100d96105d1565b6040516100e69190611071565b60405180910390f35b610109600480360381019061010491906110bf565b6106cc565b6040516101169190611129565b60405180910390f35b61012761080d565b005b6101316108de565b60405161013e919061118c565b60405180910390f35b610161600480360381019061015c91906110bf565b610902565b005b60606000600360003373ffffffffffffffffffffffffffffffffffffffff1673ffffffffffffffffffffffffffffffffffffffff1681526020019081526020016000205467ffffffffffffffff8111156101c0576101bf610d7f565b5b6040519080825280602002602001820160405280156101ee5781602001602082028036833780820191505090505b5090506000805b6001805490508110156102aa573373ffffffffffffffffffffffffffffffffffffffff166004600083815260200190815260200160002060009054906101000a900473ffffffffffffffffffffffffffffffffffffffff1673ffffffffffffffffffffffffffffffffffffffff1603610297578083838151811061027c5761027b6111a7565b5b602002602001018181525050818061029390611205565b9250505b80806102a290611205565b9150506101f5565b50819250505090565b42603c600560003373ffffffffffffffffffffffffffffffffffffffff1673ffffffffffffffffffffffffffffffffffffffff16815260200190815260200160002054610300919061124d565b10610340576040517f08c379a000000000000000000000000000000000000000000000000000000000815260040161033790611304565b60405180910390fd5b60006040518060400160405280838152602001428152509050600160026000600180549050815260200190815260200160002060006101000a81548160ff0219169083151502179055506001600360003373ffffffffffffffffffffffffffffffffffffffff1673ffffffffffffffffffffffffffffffffffffffff16815260200190815260200160002060008282546103da919061124d565b925050819055503360046000600180549050815260200190815260200160002060006101000a81548173ffffffffffffffffffffffffffffffffffffffff021916908373ffffffffffffffffffffffffffffffffffffffff160217905550600181908060018154018082558091505060019003906000526020600020906002020160009091909190915060008201518160000190816104799190611530565b5060208201518160010155505042600560003373ffffffffffffffffffffffffffffffffffffffff1673ffffffffffffffffffffffffffffffffffffffff168152602001908152602001600020819055507ffee8eb43ff1ca116b01a8c31081529a96b0c6b0a98e93bd51fe2415daca3d3966001805490506040516104fe9190611611565b60405180910390a15050565b60008054906101000a900473ffffffffffffffffffffffffffffffffffffffff1673ffffffffffffffffffffffffffffffffffffffff163373ffffffffffffffffffffffffffffffffffffffff1614610598576040517f08c379a000000000000000000000000000000000000000000000000000000000815260040161058f90611678565b60405180910390fd5b60008054906101000a900473ffffffffffffffffffffffffffffffffffffffff1673ffffffffffffffffffffffffffffffffffffffff16ff5b60606001805480602002602001604051908101604052809291908181526020016000905b828210156106c3578382906000526020600020906002020160405180604001604052908160008201805461062890611353565b80601f016020809104026020016040519081016040528092919081815260200182805461065490611353565b80156106a15780601f10610676576101008083540402835291602001916106a1565b820191906000526020600020905b81548152906001019060200180831161068457829003601f168201915b50505050508152602001600182015481525050815260200190600101906105f5565b50505050905090565b6106d4610bef565b81600115156002600083815260200190815260200160002060009054906101000a900460ff1615151461073c576040517f08c379a0000000000000000000000000000000000000000000000000000000008152600401610733906116e4565b60405180910390fd5b600183815481106107505761074f6111a7565b5b906000526020600020906002020160405180604001604052908160008201805461077990611353565b80601f01602080910402602001604051908101604052809291908181526020018280546107a590611353565b80156107f25780601f106107c7576101008083540402835291602001916107f2565b820191906000526020600020905b8154815290600101906020018083116107d557829003601f168201915b50505050508152602001600182015481525050915050919050565b60008054906101000a900473ffffffffffffffffffffffffffffffffffffffff1673ffffffffffffffffffffffffffffffffffffffff163373ffffffffffffffffffffffffffffffffffffffff161461089b576040517f08c379a000000000000000000000000000000000000000000000000000000000815260040161089290611678565b60405180910390fd5b60008060006101000a81548173ffffffffffffffffffffffffffffffffffffffff021916908373ffffffffffffffffffffffffffffffffffffffff160217905550565b60008054906101000a900473ffffffffffffffffffffffffffffffffffffffff1681565b80600115156002600083815260200190815260200160002060009054906101000a900460ff1615151461096a576040517f08c379a0000000000000000000000000000000000000000000000000000000008152600401610961906116e4565b60405180910390fd5b60006001808054905061097d9190611704565b90503373ffffffffffffffffffffffffffffffffffffffff166004600085815260200190815260200160002060009054906101000a900473ffffffffffffffffffffffffffffffffffffffff1673ffffffffffffffffffffffffffffffffffffffff1614610a20576040517f08c379a0000000000000000000000000000000000000000000000000000000008152600401610a17906117aa565b60405180910390fd5b6001805490508310610a67576040517f08c379a0000000000000000000000000000000000000000000000000000000008152600401610a5e9061183c565b60405180910390fd5b600360003373ffffffffffffffffffffffffffffffffffffffff1673ffffffffffffffffffffffffffffffffffffffff1681526020019081526020016000206000815480929190610ab79061185c565b91905055506004600082815260200190815260200160002060009054906101000a900473ffffffffffffffffffffffffffffffffffffffff166004600085815260200190815260200160002060006101000a81548173ffffffffffffffffffffffffffffffffffffffff021916908373ffffffffffffffffffffffffffffffffffffffff16021790555060018181548110610b5557610b546111a7565b5b906000526020600020906002020160018481548110610b7757610b766111a7565b5b906000526020600020906002020160008201816000019081610b99919061189b565b50600182015481600101559050506001805480610bb957610bb8611983565b5b600190038181906000526020600020906002020160008082016000610bde9190610c09565b600182016000905550509055505050565b604051806040016040528060608152602001600081525090565b508054610c1590611353565b6000825580601f10610c275750610c46565b601f016020900490600052602060002090810190610c459190610c49565b5b50565b5b80821115610c62576000816000905550600101610c4a565b5090565b600081519050919050565b600082825260208201905092915050565b6000819050602082019050919050565b6000819050919050565b610ca581610c92565b82525050565b6000610cb78383610c9c565b60208301905092915050565b6000602082019050919050565b6000610cdb82610c66565b610ce58185610c71565b9350610cf083610c82565b8060005b83811015610d21578151610d088882610cab565b9750610d1383610cc3565b925050600181019050610cf4565b5085935050505092915050565b60006020820190508181036000830152610d488184610cd0565b905092915050565b6000604051905090565b600080fd5b600080fd5b600080fd5b600080fd5b6000601f19601f8301169050919050565b7f4e487b7100000000000000000000000000000000000000000000000000000000600052604160045260246000fd5b610db782610d6e565b810181811067ffffffffffffffff82111715610dd657610dd5610d7f565b5b80604052505050565b6000610de9610d50565b9050610df58282610dae565b919050565b600067ffffffffffffffff821115610e1557610e14610d7f565b5b610e1e82610d6e565b9050602081019050919050565b82818337600083830152505050565b6000610e4d610e4884610dfa565b610ddf565b905082815260208101848484011115610e6957610e68610d69565b5b610e74848285610e2b565b509392505050565b600082601f830112610e9157610e90610d64565b5b8135610ea1848260208601610e3a565b91505092915050565b600060208284031215610ec057610ebf610d5a565b5b600082013567ffffffffffffffff811115610ede57610edd610d5f565b5b610eea84828501610e7c565b91505092915050565b600081519050919050565b600082825260208201905092915050565b6000819050602082019050919050565b600081519050919050565b600082825260208201905092915050565b60005b83811015610f59578082015181840152602081019050610f3e565b60008484015250505050565b6000610f7082610f1f565b610f7a8185610f2a565b9350610f8a818560208601610f3b565b610f9381610d6e565b840191505092915050565b60006040830160008301518482036000860152610fbb8282610f65565b9150506020830151610fd06020860182610c9c565b508091505092915050565b6000610fe78383610f9e565b905092915050565b6000602082019050919050565b600061100782610ef3565b6110118185610efe565b93508360208202850161102385610f0f565b8060005b8581101561105f57848403895281516110408582610fdb565b945061104b83610fef565b925060208a01995050600181019050611027565b50829750879550505050505092915050565b6000602082019050818103600083015261108b8184610ffc565b905092915050565b61109c81610c92565b81146110a757600080fd5b50565b6000813590506110b981611093565b92915050565b6000602082840312156110d5576110d4610d5a565b5b60006110e3848285016110aa565b91505092915050565b600060408301600083015184820360008601526111098282610f65565b915050602083015161111e6020860182610c9c565b508091505092915050565b6000602082019050818103600083015261114381846110ec565b905092915050565b600073ffffffffffffffffffffffffffffffffffffffff82169050919050565b60006111768261114b565b9050919050565b6111868161116b565b82525050565b60006020820190506111a1600083018461117d565b92915050565b7f4e487b7100000000000000000000000000000000000000000000000000000000600052603260045260246000fd5b7f4e487b7100000000000000000000000000000000000000000000000000000000600052601160045260246000fd5b600061121082610c92565b91507fffffffffffffffffffffffffffffffffffffffffffffffffffffffffffffffff8203611242576112416111d6565b5b600182019050919050565b600061125882610c92565b915061126383610c92565b925082820190508082111561127b5761127a6111d6565b5b92915050565b600082825260208201905092915050565b7f506c65617365207761697420757020746f2031206d696e757465206265666f7260008201527f65207468726f77696e6720616761696e00000000000000000000000000000000602082015250565b60006112ee603083611281565b91506112f982611292565b604082019050919050565b6000602082019050818103600083015261131d816112e1565b9050919050565b7f4e487b7100000000000000000000000000000000000000000000000000000000600052602260045260246000fd5b6000600282049050600182168061136b57607f821691505b60208210810361137e5761137d611324565b5b50919050565b60008190508160005260206000209050919050565b60006020601f8301049050919050565b600082821b905092915050565b6000600883026113e67fffffffffffffffffffffffffffffffffffffffffffffffffffffffffffffffff826113a9565b6113f086836113a9565b95508019841693508086168417925050509392505050565b6000819050919050565b600061142d61142861142384610c92565b611408565b610c92565b9050919050565b6000819050919050565b61144783611412565b61145b61145382611434565b8484546113b6565b825550505050565b600090565b611470611463565b61147b81848461143e565b505050565b5b8181101561149f57611494600082611468565b600181019050611481565b5050565b601f8211156114e4576114b581611384565b6114be84611399565b810160208510156114cd578190505b6114e16114d985611399565b830182611480565b50505b505050565b600082821c905092915050565b6000611507600019846008026114e9565b1980831691505092915050565b600061152083836114f6565b9150826002028217905092915050565b61153982610f1f565b67ffffffffffffffff81111561155257611551610d7f565b5b61155c8254611353565b6115678282856114a3565b600060209050601f83116001811461159a5760008415611588578287015190505b6115928582611514565b8655506115fa565b601f1984166115a886611384565b60005b828110156115d0578489015182556001820191506020850194506020810190506115ab565b868310156115ed57848901516115e9601f8916826114f6565b8355505b6001600288020188555050505b505050505050565b61160b81610c92565b82525050565b60006020820190506116266000830184611602565b92915050565b7f596f7520617265206e6f7420746865206f776e65720000000000000000000000600082015250565b6000611662601583611281565b915061166d8261162c565b602082019050919050565b6000602082019050818103600083015261169181611655565b9050919050565b7f54686f75676874206e6f74206578697374656421000000000000000000000000600082015250565b60006116ce601483611281565b91506116d982611698565b602082019050919050565b600060208201905081810360008301526116fd816116c1565b9050919050565b600061170f82610c92565b915061171a83610c92565b9250828203905081811115611732576117316111d6565b5b92915050565b7f596f7520617265206e6f7420746865206f776e6572206f66207468697320746860008201527f6f75676874210000000000000000000000000000000000000000000000000000602082015250565b6000611794602683611281565b915061179f82611738565b604082019050919050565b600060208201905081810360008301526117c381611787565b9050919050565b7f506c65617365207761697420666f72206174206c6561737420322074686f756760008201527f68747320617661696c61626c6521000000000000000000000000000000000000602082015250565b6000611826602e83611281565b9150611831826117ca565b604082019050919050565b6000602082019050818103600083015261185581611819565b9050919050565b600061186782610c92565b91506000820361187a576118796111d6565b5b600182039050919050565b60008154905061189481611353565b9050919050565b8181036118a9575050611981565b6118b282611885565b67ffffffffffffffff8111156118cb576118ca610d7f565b5b6118d58254611353565b6118e08282856114a3565b6000601f83116001811461190f57600084156118fd578287015490505b6119078582611514565b86555061197a565b601f19841661191d87611384565b965061192886611384565b60005b828110156119505784890154825560018201915060018501945060208101905061192b565b8683101561196d5784890154611969601f8916826114f6565b8355505b6001600288020188555050505b5050505050505b565b7f4e487b7100000000000000000000000000000000000000000000000000000000600052603160045260246000fdfea2646970667358221220572334ff3704b2744b535ebc59e672d21911f6b8cb3048ddeb7adad989c308ab64736f6c63430008110033",
  "linkReferences": {},
  "deployedLinkReferences": {}
}