{
  "_format": "hh-sol-artifact-1",
  "contractName": "TrashOfMind",
  "sourceName": "contracts/TrashOfMind.sol",
  "abi": [
    {
      "inputs": [],
      "stateMutability": "nonpayable",
      "type": "constructor"
    },
    {
      "anonymous": false,
      "inputs": [
        {
          "indexed": false,
          "internalType": "uint256",
          "name": "_nonce",
          "type": "uint256"
        }
      ],
      "name": "throwMind",
      "type": "event"
    },
    {
      "inputs": [
        {
          "internalType": "uint256",
          "name": "_nonce",
          "type": "uint256"
        }
      ],
      "name": "deleteOldMind",
      "outputs": [],
      "stateMutability": "nonpayable",
      "type": "function"
    },
    {
      "inputs": [
        {
          "internalType": "address",
          "name": "",
          "type": "address"
        },
        {
          "internalType": "uint256",
          "name": "",
          "type": "uint256"
        }
      ],
      "name": "ownThoughts",
      "outputs": [
        {
          "internalType": "uint256",
          "name": "",
          "type": "uint256"
        }
      ],
      "stateMutability": "view",
      "type": "function"
    },
    {
      "inputs": [],
      "name": "owner",
      "outputs": [
        {
          "internalType": "address",
          "name": "",
          "type": "address"
        }
      ],
      "stateMutability": "view",
      "type": "function"
    },
    {
      "inputs": [],
      "name": "renounceOwnership",
      "outputs": [],
      "stateMutability": "nonpayable",
      "type": "function"
    },
    {
      "inputs": [
        {
          "internalType": "string",
          "name": "_message",
          "type": "string"
        }
      ],
      "name": "throwNewMind",
      "outputs": [],
      "stateMutability": "nonpayable",
      "type": "function"
    },
    {
      "inputs": [],
      "name": "viewAllNoncesOfAddress",
      "outputs": [
        {
          "internalType": "uint256[]",
          "name": "",
          "type": "uint256[]"
        }
      ],
      "stateMutability": "view",
      "type": "function"
    },
    {
      "inputs": [],
      "name": "viewAllThoughts",
      "outputs": [
        {
          "components": [
            {
              "internalType": "address",
              "name": "sender",
              "type": "address"
            },
            {
              "internalType": "string",
              "name": "mind",
              "type": "string"
            },
            {
              "internalType": "uint256",
              "name": "timestamp",
              "type": "uint256"
            }
          ],
          "internalType": "struct TrashOfMind.Thought[]",
          "name": "",
          "type": "tuple[]"
        }
      ],
      "stateMutability": "view",
      "type": "function"
    },
    {
      "inputs": [
        {
          "internalType": "uint256",
          "name": "_nonce",
          "type": "uint256"
        }
      ],
      "name": "viewSpecificMind",
      "outputs": [
        {
          "components": [
            {
              "internalType": "address",
              "name": "sender",
              "type": "address"
            },
            {
              "internalType": "string",
              "name": "mind",
              "type": "string"
            },
            {
              "internalType": "uint256",
              "name": "timestamp",
              "type": "uint256"
            }
          ],
          "internalType": "struct TrashOfMind.Thought",
          "name": "",
          "type": "tuple"
        }
      ],
      "stateMutability": "view",
      "type": "function"
    }
  ],
  "bytecode": "0x608060405234801561001057600080fd5b50336000806101000a81548173ffffffffffffffffffffffffffffffffffffffff021916908373ffffffffffffffffffffffffffffffffffffffff16021790555061197d806100606000396000f3fe608060405234801561001057600080fd5b50600436106100885760003560e01c8063715018a61161005b578063715018a6146101155780638da5cb5b1461011f578063902bdf681461013d57806398e966ec1461015957610088565b80630df754281461008d5780631d299489146100ab57806344aa2f73146100c7578063535a1b22146100e5575b600080fd5b610095610189565b6040516100a29190610d25565b60405180910390f35b6100c560048036038101906100c09190610ea1565b61021e565b005b6100cf610495565b6040516100dc91906110bc565b60405180910390f35b6100ff60048036038101906100fa919061110a565b6105e6565b60405161010c9190611187565b60405180910390f35b61011d61077d565b005b61012761084e565b60405161013491906111b8565b60405180910390f35b6101576004803603810190610152919061110a565b610872565b005b610173600480360381019061016e91906111ff565b610b98565b604051610180919061124e565b60405180910390f35b6060600460003373ffffffffffffffffffffffffffffffffffffffff1673ffffffffffffffffffffffffffffffffffffffff16815260200190815260200160002080548060200260200160405190810160405280929190818152602001828054801561021457602002820191906000526020600020905b815481526020019060010190808311610200575b5050505050905090565b42603c600360003373ffffffffffffffffffffffffffffffffffffffff1673ffffffffffffffffffffffffffffffffffffffff1681526020019081526020016000205461026b9190611298565b106102ab576040517f08c379a00000000000000000000000000000000000000000000000000000000081526004016102a29061134f565b60405180910390fd5b600060405180606001604052803373ffffffffffffffffffffffffffffffffffffffff168152602001838152602001428152509050600160026000600180549050815260200190815260200160002060006101000a81548160ff021916908315150217905550600460003373ffffffffffffffffffffffffffffffffffffffff1673ffffffffffffffffffffffffffffffffffffffff1681526020019081526020016000206001805490509080600181540180825580915050600190039060005260206000200160009091909190915055600181908060018154018082558091505060019003906000526020600020906003020160009091909190915060008201518160000160006101000a81548173ffffffffffffffffffffffffffffffffffffffff021916908373ffffffffffffffffffffffffffffffffffffffff1602179055506020820151816001019081610404919061157b565b5060408201518160020155505042600360003373ffffffffffffffffffffffffffffffffffffffff1673ffffffffffffffffffffffffffffffffffffffff168152602001908152602001600020819055507ffee8eb43ff1ca116b01a8c31081529a96b0c6b0a98e93bd51fe2415daca3d396600180549050604051610489919061124e565b60405180910390a15050565b60606001805480602002602001604051908101604052809291908181526020016000905b828210156105dd57838290600052602060002090600302016040518060600160405290816000820160009054906101000a900473ffffffffffffffffffffffffffffffffffffffff1673ffffffffffffffffffffffffffffffffffffffff1673ffffffffffffffffffffffffffffffffffffffff1681526020016001820180546105429061139e565b80601f016020809104026020016040519081016040528092919081815260200182805461056e9061139e565b80156105bb5780601f10610590576101008083540402835291602001916105bb565b820191906000526020600020905b81548152906001019060200180831161059e57829003601f168201915b50505050508152602001600282015481525050815260200190600101906104b9565b50505050905090565b6105ee610bc9565b81600115156002600083815260200190815260200160002060009054906101000a900460ff16151514610656576040517f08c379a000000000000000000000000000000000000000000000000000000000815260040161064d90611699565b60405180910390fd5b6001838154811061066a576106696116b9565b5b90600052602060002090600302016040518060600160405290816000820160009054906101000a900473ffffffffffffffffffffffffffffffffffffffff1673ffffffffffffffffffffffffffffffffffffffff1673ffffffffffffffffffffffffffffffffffffffff1681526020016001820180546106e99061139e565b80601f01602080910402602001604051908101604052809291908181526020018280546107159061139e565b80156107625780601f1061073757610100808354040283529160200191610762565b820191906000526020600020905b81548152906001019060200180831161074557829003601f168201915b50505050508152602001600282015481525050915050919050565b60008054906101000a900473ffffffffffffffffffffffffffffffffffffffff1673ffffffffffffffffffffffffffffffffffffffff163373ffffffffffffffffffffffffffffffffffffffff161461080b576040517f08c379a000000000000000000000000000000000000000000000000000000000815260040161080290611734565b60405180910390fd5b60008060006101000a81548173ffffffffffffffffffffffffffffffffffffffff021916908373ffffffffffffffffffffffffffffffffffffffff160217905550565b60008054906101000a900473ffffffffffffffffffffffffffffffffffffffff1681565b80600115156002600083815260200190815260200160002060009054906101000a900460ff161515146108da576040517f08c379a00000000000000000000000000000000000000000000000000000000081526004016108d190611699565b60405180910390fd5b6000600183815481106108f0576108ef6116b9565b5b906000526020600020906003020190503373ffffffffffffffffffffffffffffffffffffffff168160000160009054906101000a900473ffffffffffffffffffffffffffffffffffffffff1673ffffffffffffffffffffffffffffffffffffffff1614610992576040517f08c379a0000000000000000000000000000000000000000000000000000000008152600401610989906117c6565b60405180910390fd5b60018080805490506109a491906117e6565b815481106109b5576109b46116b9565b5b9060005260206000209060030201600184815481106109d7576109d66116b9565b5b90600052602060002090600302016000820160009054906101000a900473ffffffffffffffffffffffffffffffffffffffff168160000160006101000a81548173ffffffffffffffffffffffffffffffffffffffff021916908373ffffffffffffffffffffffffffffffffffffffff16021790555060018201816001019081610a609190611830565b5060028201548160020155905050806001808080549050610a8191906117e6565b81548110610a9257610a916116b9565b5b90600052602060002090600302016000820160009054906101000a900473ffffffffffffffffffffffffffffffffffffffff168160000160006101000a81548173ffffffffffffffffffffffffffffffffffffffff021916908373ffffffffffffffffffffffffffffffffffffffff16021790555060018201816001019081610b1b9190611830565b50600282015481600201559050506001805480610b3b57610b3a611918565b5b6001900381819060005260206000209060030201600080820160006101000a81549073ffffffffffffffffffffffffffffffffffffffff0219169055600182016000610b879190610c00565b600282016000905550509055505050565b60046020528160005260406000208181548110610bb457600080fd5b90600052602060002001600091509150505481565b6040518060600160405280600073ffffffffffffffffffffffffffffffffffffffff16815260200160608152602001600081525090565b508054610c0c9061139e565b6000825580601f10610c1e5750610c3d565b601f016020900490600052602060002090810190610c3c9190610c40565b5b50565b5b80821115610c59576000816000905550600101610c41565b5090565b600081519050919050565b600082825260208201905092915050565b6000819050602082019050919050565b6000819050919050565b610c9c81610c89565b82525050565b6000610cae8383610c93565b60208301905092915050565b6000602082019050919050565b6000610cd282610c5d565b610cdc8185610c68565b9350610ce783610c79565b8060005b83811015610d18578151610cff8882610ca2565b9750610d0a83610cba565b925050600181019050610ceb565b5085935050505092915050565b60006020820190508181036000830152610d3f8184610cc7565b905092915050565b6000604051905090565b600080fd5b600080fd5b600080fd5b600080fd5b6000601f19601f8301169050919050565b7f4e487b7100000000000000000000000000000000000000000000000000000000600052604160045260246000fd5b610dae82610d65565b810181811067ffffffffffffffff82111715610dcd57610dcc610d76565b5b80604052505050565b6000610de0610d47565b9050610dec8282610da5565b919050565b600067ffffffffffffffff821115610e0c57610e0b610d76565b5b610e1582610d65565b9050602081019050919050565b82818337600083830152505050565b6000610e44610e3f84610df1565b610dd6565b905082815260208101848484011115610e6057610e5f610d60565b5b610e6b848285610e22565b509392505050565b600082601f830112610e8857610e87610d5b565b5b8135610e98848260208601610e31565b91505092915050565b600060208284031215610eb757610eb6610d51565b5b600082013567ffffffffffffffff811115610ed557610ed4610d56565b5b610ee184828501610e73565b91505092915050565b600081519050919050565b600082825260208201905092915050565b6000819050602082019050919050565b600073ffffffffffffffffffffffffffffffffffffffff82169050919050565b6000610f4182610f16565b9050919050565b610f5181610f36565b82525050565b600081519050919050565b600082825260208201905092915050565b60005b83811015610f91578082015181840152602081019050610f76565b60008484015250505050565b6000610fa882610f57565b610fb28185610f62565b9350610fc2818560208601610f73565b610fcb81610d65565b840191505092915050565b6000606083016000830151610fee6000860182610f48565b50602083015184820360208601526110068282610f9d565b915050604083015161101b6040860182610c93565b508091505092915050565b60006110328383610fd6565b905092915050565b6000602082019050919050565b600061105282610eea565b61105c8185610ef5565b93508360208202850161106e85610f06565b8060005b858110156110aa578484038952815161108b8582611026565b94506110968361103a565b925060208a01995050600181019050611072565b50829750879550505050505092915050565b600060208201905081810360008301526110d68184611047565b905092915050565b6110e781610c89565b81146110f257600080fd5b50565b600081359050611104816110de565b92915050565b6000602082840312156111205761111f610d51565b5b600061112e848285016110f5565b91505092915050565b600060608301600083015161114f6000860182610f48565b50602083015184820360208601526111678282610f9d565b915050604083015161117c6040860182610c93565b508091505092915050565b600060208201905081810360008301526111a18184611137565b905092915050565b6111b281610f36565b82525050565b60006020820190506111cd60008301846111a9565b92915050565b6111dc81610f36565b81146111e757600080fd5b50565b6000813590506111f9816111d3565b92915050565b6000806040838503121561121657611215610d51565b5b6000611224858286016111ea565b9250506020611235858286016110f5565b9150509250929050565b61124881610c89565b82525050565b6000602082019050611263600083018461123f565b92915050565b7f4e487b7100000000000000000000000000000000000000000000000000000000600052601160045260246000fd5b60006112a382610c89565b91506112ae83610c89565b92508282019050808211156112c6576112c5611269565b5b92915050565b600082825260208201905092915050565b7f506c65617365207761697420757020746f2031206d696e757465206265666f7260008201527f65207468726f77696e6720616761696e00000000000000000000000000000000602082015250565b60006113396030836112cc565b9150611344826112dd565b604082019050919050565b600060208201905081810360008301526113688161132c565b9050919050565b7f4e487b7100000000000000000000000000000000000000000000000000000000600052602260045260246000fd5b600060028204905060018216806113b657607f821691505b6020821081036113c9576113c861136f565b5b50919050565b60008190508160005260206000209050919050565b60006020601f8301049050919050565b600082821b905092915050565b6000600883026114317fffffffffffffffffffffffffffffffffffffffffffffffffffffffffffffffff826113f4565b61143b86836113f4565b95508019841693508086168417925050509392505050565b6000819050919050565b600061147861147361146e84610c89565b611453565b610c89565b9050919050565b6000819050919050565b6114928361145d565b6114a661149e8261147f565b848454611401565b825550505050565b600090565b6114bb6114ae565b6114c6818484611489565b505050565b5b818110156114ea576114df6000826114b3565b6001810190506114cc565b5050565b601f82111561152f57611500816113cf565b611509846113e4565b81016020851015611518578190505b61152c611524856113e4565b8301826114cb565b50505b505050565b600082821c905092915050565b600061155260001984600802611534565b1980831691505092915050565b600061156b8383611541565b9150826002028217905092915050565b61158482610f57565b67ffffffffffffffff81111561159d5761159c610d76565b5b6115a7825461139e565b6115b28282856114ee565b600060209050601f8311600181146115e557600084156115d3578287015190505b6115dd858261155f565b865550611645565b601f1984166115f3866113cf565b60005b8281101561161b578489015182556001820191506020850194506020810190506115f6565b868310156116385784890151611634601f891682611541565b8355505b6001600288020188555050505b505050505050565b7f54686f75676874206e6f74206578697374656421000000000000000000000000600082015250565b60006116836014836112cc565b915061168e8261164d565b602082019050919050565b600060208201905081810360008301526116b281611676565b9050919050565b7f4e487b7100000000000000000000000000000000000000000000000000000000600052603260045260246000fd5b7f596f7520617265206e6f7420746865206f776e65720000000000000000000000600082015250565b600061171e6015836112cc565b9150611729826116e8565b602082019050919050565b6000602082019050818103600083015261174d81611711565b9050919050565b7f596f7520617265206e6f7420746865206f776e6572206f66207468697320746860008201527f6f75676874210000000000000000000000000000000000000000000000000000602082015250565b60006117b06026836112cc565b91506117bb82611754565b604082019050919050565b600060208201905081810360008301526117df816117a3565b9050919050565b60006117f182610c89565b91506117fc83610c89565b925082820390508181111561181457611813611269565b5b92915050565b6000815490506118298161139e565b9050919050565b81810361183e575050611916565b6118478261181a565b67ffffffffffffffff8111156118605761185f610d76565b5b61186a825461139e565b6118758282856114ee565b6000601f8311600181146118a45760008415611892578287015490505b61189c858261155f565b86555061190f565b601f1984166118b2876113cf565b96506118bd866113cf565b60005b828110156118e5578489015482556001820191506001850194506020810190506118c0565b8683101561190257848901546118fe601f891682611541565b8355505b6001600288020188555050505b5050505050505b565b7f4e487b7100000000000000000000000000000000000000000000000000000000600052603160045260246000fdfea2646970667358221220346b7f0fb1e3525238c34b11ca03de54a76e1a85f6f43db318032574d4ffed0064736f6c63430008110033",
  "linkReferences": {},
  "deployedLinkReferences": {}
}