{
  "_format": "hh-sol-artifact-1",
  "contractName": "TrashOfMind",
  "sourceName": "contracts/TrashOfMind.sol",
  "abi": [
    {
      "inputs": [],
      "stateMutability": "nonpayable",
      "type": "constructor"
    },
    {
      "anonymous": false,
      "inputs": [
        {
          "indexed": false,
          "internalType": "uint256",
          "name": "_nonce",
          "type": "uint256"
        }
      ],
      "name": "throwMind",
      "type": "event"
    },
    {
      "inputs": [],
      "name": "close",
      "outputs": [],
      "stateMutability": "nonpayable",
      "type": "function"
    },
    {
      "inputs": [
        {
          "internalType": "uint256",
          "name": "_nonce",
          "type": "uint256"
        }
      ],
      "name": "deleteOldMind",
      "outputs": [],
      "stateMutability": "nonpayable",
      "type": "function"
    },
    {
      "inputs": [
        {
          "internalType": "address",
          "name": "",
          "type": "address"
        },
        {
          "internalType": "uint256",
          "name": "",
          "type": "uint256"
        }
      ],
      "name": "ownThoughts",
      "outputs": [
        {
          "internalType": "uint256",
          "name": "",
          "type": "uint256"
        }
      ],
      "stateMutability": "view",
      "type": "function"
    },
    {
      "inputs": [],
      "name": "owner",
      "outputs": [
        {
          "internalType": "address payable",
          "name": "",
          "type": "address"
        }
      ],
      "stateMutability": "view",
      "type": "function"
    },
    {
      "inputs": [],
      "name": "renounceOwnership",
      "outputs": [],
      "stateMutability": "nonpayable",
      "type": "function"
    },
    {
      "inputs": [
        {
          "internalType": "string",
          "name": "_message",
          "type": "string"
        }
      ],
      "name": "throwNewMind",
      "outputs": [],
      "stateMutability": "nonpayable",
      "type": "function"
    },
    {
      "inputs": [],
      "name": "viewAllNoncesOfAddress",
      "outputs": [
        {
          "internalType": "uint256[]",
          "name": "",
          "type": "uint256[]"
        }
      ],
      "stateMutability": "view",
      "type": "function"
    },
    {
      "inputs": [],
      "name": "viewAllThoughts",
      "outputs": [
        {
          "components": [
            {
              "internalType": "address",
              "name": "sender",
              "type": "address"
            },
            {
              "internalType": "string",
              "name": "mind",
              "type": "string"
            },
            {
              "internalType": "uint256",
              "name": "timestamp",
              "type": "uint256"
            }
          ],
          "internalType": "struct TrashOfMind.Thought[]",
          "name": "",
          "type": "tuple[]"
        }
      ],
      "stateMutability": "view",
      "type": "function"
    },
    {
      "inputs": [
        {
          "internalType": "uint256",
          "name": "_nonce",
          "type": "uint256"
        }
      ],
      "name": "viewSpecificMind",
      "outputs": [
        {
          "components": [
            {
              "internalType": "address",
              "name": "sender",
              "type": "address"
            },
            {
              "internalType": "string",
              "name": "mind",
              "type": "string"
            },
            {
              "internalType": "uint256",
              "name": "timestamp",
              "type": "uint256"
            }
          ],
          "internalType": "struct TrashOfMind.Thought",
          "name": "",
          "type": "tuple"
        }
      ],
      "stateMutability": "view",
      "type": "function"
    }
  ],
  "bytecode": "0x608060405234801561001057600080fd5b50336000806101000a81548173ffffffffffffffffffffffffffffffffffffffff021916908373ffffffffffffffffffffffffffffffffffffffff160217905550611c87806100606000396000f3fe608060405234801561001057600080fd5b50600436106100935760003560e01c8063535a1b2211610066578063535a1b22146100fa578063715018a61461012a5780638da5cb5b14610134578063902bdf681461015257806398e966ec1461016e57610093565b80630df75428146100985780631d299489146100b657806343d726d6146100d257806344aa2f73146100dc575b600080fd5b6100a061019e565b6040516100ad919061101d565b60405180910390f35b6100d060048036038101906100cb9190611199565b610233565b005b6100da6104aa565b005b6100e4610571565b6040516100f191906113b4565b60405180910390f35b610114600480360381019061010f9190611402565b6106c2565b604051610121919061147f565b60405180910390f35b610132610859565b005b61013c61092a565b60405161014991906114c2565b60405180910390f35b61016c60048036038101906101679190611402565b61094e565b005b61018860048036038101906101839190611509565b610e90565b6040516101959190611558565b60405180910390f35b6060600460003373ffffffffffffffffffffffffffffffffffffffff1673ffffffffffffffffffffffffffffffffffffffff16815260200190815260200160002080548060200260200160405190810160405280929190818152602001828054801561022957602002820191906000526020600020905b815481526020019060010190808311610215575b5050505050905090565b42603c600360003373ffffffffffffffffffffffffffffffffffffffff1673ffffffffffffffffffffffffffffffffffffffff1681526020019081526020016000205461028091906115a2565b106102c0576040517f08c379a00000000000000000000000000000000000000000000000000000000081526004016102b790611659565b60405180910390fd5b600060405180606001604052803373ffffffffffffffffffffffffffffffffffffffff168152602001838152602001428152509050600160026000600180549050815260200190815260200160002060006101000a81548160ff021916908315150217905550600460003373ffffffffffffffffffffffffffffffffffffffff1673ffffffffffffffffffffffffffffffffffffffff1681526020019081526020016000206001805490509080600181540180825580915050600190039060005260206000200160009091909190915055600181908060018154018082558091505060019003906000526020600020906003020160009091909190915060008201518160000160006101000a81548173ffffffffffffffffffffffffffffffffffffffff021916908373ffffffffffffffffffffffffffffffffffffffff16021790555060208201518160010190816104199190611885565b5060408201518160020155505042600360003373ffffffffffffffffffffffffffffffffffffffff1673ffffffffffffffffffffffffffffffffffffffff168152602001908152602001600020819055507ffee8eb43ff1ca116b01a8c31081529a96b0c6b0a98e93bd51fe2415daca3d39660018054905060405161049e9190611558565b60405180910390a15050565b60008054906101000a900473ffffffffffffffffffffffffffffffffffffffff1673ffffffffffffffffffffffffffffffffffffffff163373ffffffffffffffffffffffffffffffffffffffff1614610538576040517f08c379a000000000000000000000000000000000000000000000000000000000815260040161052f906119a3565b60405180910390fd5b60008054906101000a900473ffffffffffffffffffffffffffffffffffffffff1673ffffffffffffffffffffffffffffffffffffffff16ff5b60606001805480602002602001604051908101604052809291908181526020016000905b828210156106b957838290600052602060002090600302016040518060600160405290816000820160009054906101000a900473ffffffffffffffffffffffffffffffffffffffff1673ffffffffffffffffffffffffffffffffffffffff1673ffffffffffffffffffffffffffffffffffffffff16815260200160018201805461061e906116a8565b80601f016020809104026020016040519081016040528092919081815260200182805461064a906116a8565b80156106975780601f1061066c57610100808354040283529160200191610697565b820191906000526020600020905b81548152906001019060200180831161067a57829003601f168201915b5050505050815260200160028201548152505081526020019060010190610595565b50505050905090565b6106ca610ec1565b81600115156002600083815260200190815260200160002060009054906101000a900460ff16151514610732576040517f08c379a000000000000000000000000000000000000000000000000000000000815260040161072990611a0f565b60405180910390fd5b6001838154811061074657610745611a2f565b5b90600052602060002090600302016040518060600160405290816000820160009054906101000a900473ffffffffffffffffffffffffffffffffffffffff1673ffffffffffffffffffffffffffffffffffffffff1673ffffffffffffffffffffffffffffffffffffffff1681526020016001820180546107c5906116a8565b80601f01602080910402602001604051908101604052809291908181526020018280546107f1906116a8565b801561083e5780601f106108135761010080835404028352916020019161083e565b820191906000526020600020905b81548152906001019060200180831161082157829003601f168201915b50505050508152602001600282015481525050915050919050565b60008054906101000a900473ffffffffffffffffffffffffffffffffffffffff1673ffffffffffffffffffffffffffffffffffffffff163373ffffffffffffffffffffffffffffffffffffffff16146108e7576040517f08c379a00000000000000000000000000000000000000000000000000000000081526004016108de906119a3565b60405180910390fd5b60008060006101000a81548173ffffffffffffffffffffffffffffffffffffffff021916908373ffffffffffffffffffffffffffffffffffffffff160217905550565b60008054906101000a900473ffffffffffffffffffffffffffffffffffffffff1681565b80600115156002600083815260200190815260200160002060009054906101000a900460ff161515146109b6576040517f08c379a00000000000000000000000000000000000000000000000000000000081526004016109ad90611a0f565b60405180910390fd5b6000600183815481106109cc576109cb611a2f565b5b906000526020600020906003020190503373ffffffffffffffffffffffffffffffffffffffff168160000160009054906101000a900473ffffffffffffffffffffffffffffffffffffffff1673ffffffffffffffffffffffffffffffffffffffff1614610a6e576040517f08c379a0000000000000000000000000000000000000000000000000000000008152600401610a6590611ad0565b60405180910390fd5b6001808080549050610a809190611af0565b81548110610a9157610a90611a2f565b5b906000526020600020906003020160018481548110610ab357610ab2611a2f565b5b90600052602060002090600302016000820160009054906101000a900473ffffffffffffffffffffffffffffffffffffffff168160000160006101000a81548173ffffffffffffffffffffffffffffffffffffffff021916908373ffffffffffffffffffffffffffffffffffffffff16021790555060018201816001019081610b3c9190611b3a565b5060028201548160020155905050600460003373ffffffffffffffffffffffffffffffffffffffff1673ffffffffffffffffffffffffffffffffffffffff1681526020019081526020016000206001600460003373ffffffffffffffffffffffffffffffffffffffff1673ffffffffffffffffffffffffffffffffffffffff16815260200190815260200160002080549050610bd89190611af0565b81548110610be957610be8611a2f565b5b9060005260206000200154600460003373ffffffffffffffffffffffffffffffffffffffff1673ffffffffffffffffffffffffffffffffffffffff1681526020019081526020016000208481548110610c4557610c44611a2f565b5b9060005260206000200181905550806001808080549050610c669190611af0565b81548110610c7757610c76611a2f565b5b90600052602060002090600302016000820160009054906101000a900473ffffffffffffffffffffffffffffffffffffffff168160000160006101000a81548173ffffffffffffffffffffffffffffffffffffffff021916908373ffffffffffffffffffffffffffffffffffffffff16021790555060018201816001019081610d009190611b3a565b506002820154816002015590505082600460003373ffffffffffffffffffffffffffffffffffffffff1673ffffffffffffffffffffffffffffffffffffffff1681526020019081526020016000206001600460003373ffffffffffffffffffffffffffffffffffffffff1673ffffffffffffffffffffffffffffffffffffffff16815260200190815260200160002080549050610d9d9190611af0565b81548110610dae57610dad611a2f565b5b90600052602060002001819055506001805480610dce57610dcd611c22565b5b6001900381819060005260206000209060030201600080820160006101000a81549073ffffffffffffffffffffffffffffffffffffffff0219169055600182016000610e1a9190610ef8565b600282016000905550509055600460003373ffffffffffffffffffffffffffffffffffffffff1673ffffffffffffffffffffffffffffffffffffffff168152602001908152602001600020805480610e7557610e74611c22565b5b60019003818190600052602060002001600090559055505050565b60046020528160005260406000208181548110610eac57600080fd5b90600052602060002001600091509150505481565b6040518060600160405280600073ffffffffffffffffffffffffffffffffffffffff16815260200160608152602001600081525090565b508054610f04906116a8565b6000825580601f10610f165750610f35565b601f016020900490600052602060002090810190610f349190610f38565b5b50565b5b80821115610f51576000816000905550600101610f39565b5090565b600081519050919050565b600082825260208201905092915050565b6000819050602082019050919050565b6000819050919050565b610f9481610f81565b82525050565b6000610fa68383610f8b565b60208301905092915050565b6000602082019050919050565b6000610fca82610f55565b610fd48185610f60565b9350610fdf83610f71565b8060005b83811015611010578151610ff78882610f9a565b975061100283610fb2565b925050600181019050610fe3565b5085935050505092915050565b600060208201905081810360008301526110378184610fbf565b905092915050565b6000604051905090565b600080fd5b600080fd5b600080fd5b600080fd5b6000601f19601f8301169050919050565b7f4e487b7100000000000000000000000000000000000000000000000000000000600052604160045260246000fd5b6110a68261105d565b810181811067ffffffffffffffff821117156110c5576110c461106e565b5b80604052505050565b60006110d861103f565b90506110e4828261109d565b919050565b600067ffffffffffffffff8211156111045761110361106e565b5b61110d8261105d565b9050602081019050919050565b82818337600083830152505050565b600061113c611137846110e9565b6110ce565b90508281526020810184848401111561115857611157611058565b5b61116384828561111a565b509392505050565b600082601f8301126111805761117f611053565b5b8135611190848260208601611129565b91505092915050565b6000602082840312156111af576111ae611049565b5b600082013567ffffffffffffffff8111156111cd576111cc61104e565b5b6111d98482850161116b565b91505092915050565b600081519050919050565b600082825260208201905092915050565b6000819050602082019050919050565b600073ffffffffffffffffffffffffffffffffffffffff82169050919050565b60006112398261120e565b9050919050565b6112498161122e565b82525050565b600081519050919050565b600082825260208201905092915050565b60005b8381101561128957808201518184015260208101905061126e565b60008484015250505050565b60006112a08261124f565b6112aa818561125a565b93506112ba81856020860161126b565b6112c38161105d565b840191505092915050565b60006060830160008301516112e66000860182611240565b50602083015184820360208601526112fe8282611295565b91505060408301516113136040860182610f8b565b508091505092915050565b600061132a83836112ce565b905092915050565b6000602082019050919050565b600061134a826111e2565b61135481856111ed565b935083602082028501611366856111fe565b8060005b858110156113a25784840389528151611383858261131e565b945061138e83611332565b925060208a0199505060018101905061136a565b50829750879550505050505092915050565b600060208201905081810360008301526113ce818461133f565b905092915050565b6113df81610f81565b81146113ea57600080fd5b50565b6000813590506113fc816113d6565b92915050565b60006020828403121561141857611417611049565b5b6000611426848285016113ed565b91505092915050565b60006060830160008301516114476000860182611240565b506020830151848203602086015261145f8282611295565b91505060408301516114746040860182610f8b565b508091505092915050565b60006020820190508181036000830152611499818461142f565b905092915050565b60006114ac8261120e565b9050919050565b6114bc816114a1565b82525050565b60006020820190506114d760008301846114b3565b92915050565b6114e68161122e565b81146114f157600080fd5b50565b600081359050611503816114dd565b92915050565b600080604083850312156115205761151f611049565b5b600061152e858286016114f4565b925050602061153f858286016113ed565b9150509250929050565b61155281610f81565b82525050565b600060208201905061156d6000830184611549565b92915050565b7f4e487b7100000000000000000000000000000000000000000000000000000000600052601160045260246000fd5b60006115ad82610f81565b91506115b883610f81565b92508282019050808211156115d0576115cf611573565b5b92915050565b600082825260208201905092915050565b7f506c65617365207761697420757020746f2031206d696e757465206265666f7260008201527f65207468726f77696e6720616761696e00000000000000000000000000000000602082015250565b60006116436030836115d6565b915061164e826115e7565b604082019050919050565b6000602082019050818103600083015261167281611636565b9050919050565b7f4e487b7100000000000000000000000000000000000000000000000000000000600052602260045260246000fd5b600060028204905060018216806116c057607f821691505b6020821081036116d3576116d2611679565b5b50919050565b60008190508160005260206000209050919050565b60006020601f8301049050919050565b600082821b905092915050565b60006008830261173b7fffffffffffffffffffffffffffffffffffffffffffffffffffffffffffffffff826116fe565b61174586836116fe565b95508019841693508086168417925050509392505050565b6000819050919050565b600061178261177d61177884610f81565b61175d565b610f81565b9050919050565b6000819050919050565b61179c83611767565b6117b06117a882611789565b84845461170b565b825550505050565b600090565b6117c56117b8565b6117d0818484611793565b505050565b5b818110156117f4576117e96000826117bd565b6001810190506117d6565b5050565b601f8211156118395761180a816116d9565b611813846116ee565b81016020851015611822578190505b61183661182e856116ee565b8301826117d5565b50505b505050565b600082821c905092915050565b600061185c6000198460080261183e565b1980831691505092915050565b6000611875838361184b565b9150826002028217905092915050565b61188e8261124f565b67ffffffffffffffff8111156118a7576118a661106e565b5b6118b182546116a8565b6118bc8282856117f8565b600060209050601f8311600181146118ef57600084156118dd578287015190505b6118e78582611869565b86555061194f565b601f1984166118fd866116d9565b60005b8281101561192557848901518255600182019150602085019450602081019050611900565b86831015611942578489015161193e601f89168261184b565b8355505b6001600288020188555050505b505050505050565b7f596f7520617265206e6f7420746865206f776e65720000000000000000000000600082015250565b600061198d6015836115d6565b915061199882611957565b602082019050919050565b600060208201905081810360008301526119bc81611980565b9050919050565b7f54686f75676874206e6f74206578697374656421000000000000000000000000600082015250565b60006119f96014836115d6565b9150611a04826119c3565b602082019050919050565b60006020820190508181036000830152611a28816119ec565b9050919050565b7f4e487b7100000000000000000000000000000000000000000000000000000000600052603260045260246000fd5b7f596f7520617265206e6f7420746865206f776e6572206f66207468697320746860008201527f6f75676874210000000000000000000000000000000000000000000000000000602082015250565b6000611aba6026836115d6565b9150611ac582611a5e565b604082019050919050565b60006020820190508181036000830152611ae981611aad565b9050919050565b6000611afb82610f81565b9150611b0683610f81565b9250828203905081811115611b1e57611b1d611573565b5b92915050565b600081549050611b33816116a8565b9050919050565b818103611b48575050611c20565b611b5182611b24565b67ffffffffffffffff811115611b6a57611b6961106e565b5b611b7482546116a8565b611b7f8282856117f8565b6000601f831160018114611bae5760008415611b9c578287015490505b611ba68582611869565b865550611c19565b601f198416611bbc876116d9565b9650611bc7866116d9565b60005b82811015611bef57848901548255600182019150600185019450602081019050611bca565b86831015611c0c5784890154611c08601f89168261184b565b8355505b6001600288020188555050505b5050505050505b565b7f4e487b7100000000000000000000000000000000000000000000000000000000600052603160045260246000fdfea2646970667358221220af62fbce9a10d3484434217a1cd9cc21eaf3d51d26fd68d66ee1195530105c2f64736f6c63430008110033",
  "linkReferences": {},
  "deployedLinkReferences": {}
}